{"abi":[{"type":"constructor","inputs":[{"name":"_forwarderAddress","type":"address","internalType":"address"}],"stateMutability":"nonpayable"},{"type":"function","name":"ACTION_BORROW","inputs":[],"outputs":[{"name":"","type":"uint8","internalType":"uint8"}],"stateMutability":"view"},{"type":"function","name":"ACTION_CLOSE","inputs":[],"outputs":[{"name":"","type":"uint8","internalType":"uint8"}],"stateMutability":"view"},{"type":"function","name":"ACTION_PAUSE","inputs":[],"outputs":[{"name":"","type":"uint8","internalType":"uint8"}],"stateMutability":"view"},{"type":"function","name":"ACTION_REPAY","inputs":[],"outputs":[{"name":"","type":"uint8","internalType":"uint8"}],"stateMutability":"view"},{"type":"function","name":"commandHistory","inputs":[{"name":"","type":"uint256","internalType":"uint256"}],"outputs":[{"name":"agentId","type":"bytes32","internalType":"bytes32"},{"name":"actionType","type":"uint8","internalType":"uint8"},{"name":"amount","type":"uint256","internalType":"uint256"},{"name":"targetLtvBps","type":"uint16","internalType":"uint16"},{"name":"confidence","type":"uint16","internalType":"uint16"},{"name":"timestamp","type":"uint48","internalType":"uint48"},{"name":"executed","type":"bool","internalType":"bool"}],"stateMutability":"view"},{"type":"function","name":"getCommandCount","inputs":[],"outputs":[{"name":"","type":"uint256","internalType":"uint256"}],"stateMutability":"view"},{"type":"function","name":"getForwarderAddress","inputs":[],"outputs":[{"name":"","type":"address","internalType":"address"}],"stateMutability":"view"},{"type":"function","name":"getPendingCommand","inputs":[{"name":"agentId","type":"bytes32","internalType":"bytes32"}],"outputs":[{"name":"","type":"tuple","internalType":"struct BorrowBotExecutor.RebalanceCommand","components":[{"name":"agentId","type":"bytes32","internalType":"bytes32"},{"name":"actionType","type":"uint8","internalType":"uint8"},{"name":"amount","type":"uint256","internalType":"uint256"},{"name":"targetLtvBps","type":"uint16","internalType":"uint16"},{"name":"confidence","type":"uint16","internalType":"uint16"},{"name":"timestamp","type":"uint48","internalType":"uint48"},{"name":"executed","type":"bool","internalType":"bool"}]}],"stateMutability":"view"},{"type":"function","name":"markExecuted","inputs":[{"name":"agentId","type":"bytes32","internalType":"bytes32"}],"outputs":[],"stateMutability":"nonpayable"},{"type":"function","name":"onReport","inputs":[{"name":"metadata","type":"bytes","internalType":"bytes"},{"name":"report","type":"bytes","internalType":"bytes"}],"outputs":[],"stateMutability":"nonpayable"},{"type":"function","name":"owner","inputs":[],"outputs":[{"name":"","type":"address","internalType":"address"}],"stateMutability":"view"},{"type":"function","name":"pendingCommands","inputs":[{"name":"","type":"bytes32","internalType":"bytes32"}],"outputs":[{"name":"agentId","type":"bytes32","internalType":"bytes32"},{"name":"actionType","type":"uint8","internalType":"uint8"},{"name":"amount","type":"uint256","internalType":"uint256"},{"name":"targetLtvBps","type":"uint16","internalType":"uint16"},{"name":"confidence","type":"uint16","internalType":"uint16"},{"name":"timestamp","type":"uint48","internalType":"uint48"},{"name":"executed","type":"bool","internalType":"bool"}],"stateMutability":"view"},{"type":"function","name":"renounceOwnership","inputs":[],"outputs":[],"stateMutability":"nonpayable"},{"type":"function","name":"setForwarderAddress","inputs":[{"name":"_forwarder","type":"address","internalType":"address"}],"outputs":[],"stateMutability":"nonpayable"},{"type":"function","name":"supportsInterface","inputs":[{"name":"interfaceId","type":"bytes4","internalType":"bytes4"}],"outputs":[{"name":"","type":"bool","internalType":"bool"}],"stateMutability":"view"},{"type":"function","name":"transferOwnership","inputs":[{"name":"newOwner","type":"address","internalType":"address"}],"outputs":[],"stateMutability":"nonpayable"},{"type":"event","name":"CommandExecuted","inputs":[{"name":"agentId","type":"bytes32","indexed":true,"internalType":"bytes32"},{"name":"commandIndex","type":"uint256","indexed":false,"internalType":"uint256"}],"anonymous":false},{"type":"event","name":"ForwarderAddressUpdated","inputs":[{"name":"previousForwarder","type":"address","indexed":true,"internalType":"address"},{"name":"newForwarder","type":"address","indexed":true,"internalType":"address"}],"anonymous":false},{"type":"event","name":"OwnershipTransferred","inputs":[{"name":"previousOwner","type":"address","indexed":true,"internalType":"address"},{"name":"newOwner","type":"address","indexed":true,"internalType":"address"}],"anonymous":false},{"type":"event","name":"RebalanceRequested","inputs":[{"name":"agentId","type":"bytes32","indexed":true,"internalType":"bytes32"},{"name":"actionType","type":"uint8","indexed":false,"internalType":"uint8"},{"name":"amount","type":"uint256","indexed":false,"internalType":"uint256"},{"name":"targetLtvBps","type":"uint16","indexed":false,"internalType":"uint16"},{"name":"confidence","type":"uint16","indexed":false,"internalType":"uint16"},{"name":"timestamp","type":"uint48","indexed":false,"internalType":"uint48"}],"anonymous":false},{"type":"error","name":"InvalidActionType","inputs":[]},{"type":"error","name":"InvalidForwarderAddress","inputs":[]},{"type":"error","name":"InvalidSender","inputs":[{"name":"sender","type":"address","internalType":"address"},{"name":"expected","type":"address","internalType":"address"}]},{"type":"error","name":"OwnableInvalidOwner","inputs":[{"name":"owner","type":"address","internalType":"address"}]},{"type":"error","name":"OwnableUnauthorizedAccount","inputs":[{"name":"account","type":"address","internalType":"address"}]}],"bytecode":{"object":"0x608060405234801562000010575f80fd5b50604051620017eb380380620017eb8339818101604052810190620000369190620002eb565b80335f73ffffffffffffffffffffffffffffffffffffffff168173ffffffffffffffffffffffffffffffffffffffff1603620000ab575f6040517f1e4fbdf7000000000000000000000000000000000000000000000000000000008152600401620000a291906200032c565b60405180910390fd5b620000bc81620001c560201b60201c565b505f73ffffffffffffffffffffffffffffffffffffffff168173ffffffffffffffffffffffffffffffffffffffff160362000123576040517f381dd54000000000000000000000000000000000000000000000000000000000815260040160405180910390fd5b8060015f6101000a81548173ffffffffffffffffffffffffffffffffffffffff021916908373ffffffffffffffffffffffffffffffffffffffff1602179055508073ffffffffffffffffffffffffffffffffffffffff165f73ffffffffffffffffffffffffffffffffffffffff167f039ad854736757070884dd787ef1a7f58db33546639d1f3efddcf4a33fb8997e60405160405180910390a3505062000347565b5f805f9054906101000a900473ffffffffffffffffffffffffffffffffffffffff169050815f806101000a81548173ffffffffffffffffffffffffffffffffffffffff021916908373ffffffffffffffffffffffffffffffffffffffff1602179055508173ffffffffffffffffffffffffffffffffffffffff168173ffffffffffffffffffffffffffffffffffffffff167f8be0079c531659141344cd1fd0a4f28419497f9722a3daafe3b4186f6b6457e060405160405180910390a35050565b5f80fd5b5f73ffffffffffffffffffffffffffffffffffffffff82169050919050565b5f620002b5826200028a565b9050919050565b620002c781620002a9565b8114620002d2575f80fd5b50565b5f81519050620002e581620002bc565b92915050565b5f6020828403121562000303576200030262000286565b5b5f6200031284828501620002d5565b91505092915050565b6200032681620002a9565b82525050565b5f602082019050620003415f8301846200031b565b92915050565b61149680620003555f395ff3fe608060405234801561000f575f80fd5b50600436106100fe575f3560e01c80638762da8b11610095578063d777cc6d11610064578063d777cc6d1461028e578063ed1c2781146102aa578063f2fde38b146102e0578063fccd7411146102fc576100fe565b80638762da8b146101fe5780638da5cb5b1461021c5780639a2d834f1461023a578063aaac726a14610258576100fe565b8063665d4c61116100d1578063665d4c611461018c578063715018a6146101a8578063805f2132146101b257806385cfcd2c146101ce576100fe565b806301ffc9a71461010257806312d6e606146101325780633441856f146101505780635e05b31c1461016e575b5f80fd5b61011c60048036038101906101179190610e04565b61031a565b6040516101299190610e49565b60405180910390f35b61013a6103eb565b6040516101479190610e7d565b60405180910390f35b6101586103ef565b6040516101659190610ed5565b60405180910390f35b610176610417565b6040516101839190610e7d565b60405180910390f35b6101a660048036038101906101a19190610f21565b61041c565b005b6101b061049d565b005b6101cc60048036038101906101c79190610fad565b6104b0565b005b6101e860048036038101906101e39190610f21565b6105cf565b6040516101f59190611138565b60405180910390f35b6102066106af565b6040516102139190610e7d565b60405180910390f35b6102246106b4565b6040516102319190610ed5565b60405180910390f35b6102426106db565b60405161024f9190611160565b60405180910390f35b610272600480360381019061026d91906111a3565b6106e7565b60405161028597969594939291906111fb565b60405180910390f35b6102a860048036038101906102a39190611292565b61077a565b005b6102c460048036038101906102bf9190610f21565b610845565b6040516102d797969594939291906111fb565b60405180910390f35b6102fa60048036038101906102f59190611292565b6108c9565b005b61030461094d565b6040516103119190610e7d565b60405180910390f35b5f7f805f2132000000000000000000000000000000000000000000000000000000007bffffffffffffffffffffffffffffffffffffffffffffffffffffffff1916827bffffffffffffffffffffffffffffffffffffffffffffffffffffffff191614806103e457507f01ffc9a7000000000000000000000000000000000000000000000000000000007bffffffffffffffffffffffffffffffffffffffffffffffffffffffff1916827bffffffffffffffffffffffffffffffffffffffffffffffffffffffff1916145b9050919050565b5f81565b5f60015f9054906101000a900473ffffffffffffffffffffffffffffffffffffffff16905090565b600381565b610424610952565b600160025f8381526020019081526020015f20600301600a6101000a81548160ff021916908315150217905550807fb804d39965bbdd61c83a3ab5cb51fb5880c1ccfe414cd290d03162eea5444a14600160038054905061048591906112ea565b6040516104929190611160565b60405180910390a250565b6104a5610952565b6104ae5f6109d9565b565b5f73ffffffffffffffffffffffffffffffffffffffff1660015f9054906101000a900473ffffffffffffffffffffffffffffffffffffffff1673ffffffffffffffffffffffffffffffffffffffff161415801561055a575060015f9054906101000a900473ffffffffffffffffffffffffffffffffffffffff1673ffffffffffffffffffffffffffffffffffffffff163373ffffffffffffffffffffffffffffffffffffffff1614155b156105bf573360015f9054906101000a900473ffffffffffffffffffffffffffffffffffffffff166040517fe1130dba0000000000000000000000000000000000000000000000000000000081526004016105b692919061131d565b60405180910390fd5b6105c98282610a9a565b50505050565b6105d7610d59565b60025f8381526020019081526020015f206040518060e00160405290815f8201548152602001600182015f9054906101000a900460ff1660ff1660ff16815260200160028201548152602001600382015f9054906101000a900461ffff1661ffff1661ffff1681526020016003820160029054906101000a900461ffff1661ffff1661ffff1681526020016003820160049054906101000a900465ffffffffffff1665ffffffffffff1665ffffffffffff16815260200160038201600a9054906101000a900460ff1615151515815250509050919050565b600281565b5f805f9054906101000a900473ffffffffffffffffffffffffffffffffffffffff16905090565b5f600380549050905090565b600381815481106106f6575f80fd5b905f5260205f2090600402015f91509050805f015490806001015f9054906101000a900460ff1690806002015490806003015f9054906101000a900461ffff16908060030160029054906101000a900461ffff16908060030160049054906101000a900465ffffffffffff169080600301600a9054906101000a900460ff16905087565b610782610952565b5f60015f9054906101000a900473ffffffffffffffffffffffffffffffffffffffff1690508160015f6101000a81548173ffffffffffffffffffffffffffffffffffffffff021916908373ffffffffffffffffffffffffffffffffffffffff1602179055508173ffffffffffffffffffffffffffffffffffffffff168173ffffffffffffffffffffffffffffffffffffffff167f039ad854736757070884dd787ef1a7f58db33546639d1f3efddcf4a33fb8997e60405160405180910390a35050565b6002602052805f5260405f205f91509050805f015490806001015f9054906101000a900460ff1690806002015490806003015f9054906101000a900461ffff16908060030160029054906101000a900461ffff16908060030160049054906101000a900465ffffffffffff169080600301600a9054906101000a900460ff16905087565b6108d1610952565b5f73ffffffffffffffffffffffffffffffffffffffff168173ffffffffffffffffffffffffffffffffffffffff1603610941575f6040517f1e4fbdf70000000000000000000000000000000000000000000000000000000081526004016109389190610ed5565b60405180910390fd5b61094a816109d9565b50565b600181565b61095a610d52565b73ffffffffffffffffffffffffffffffffffffffff166109786106b4565b73ffffffffffffffffffffffffffffffffffffffff16146109d75761099b610d52565b6040517f118cdaa70000000000000000000000000000000000000000000000000000000081526004016109ce9190610ed5565b60405180910390fd5b565b5f805f9054906101000a900473ffffffffffffffffffffffffffffffffffffffff169050815f806101000a81548173ffffffffffffffffffffffffffffffffffffffff021916908373ffffffffffffffffffffffffffffffffffffffff1602179055508173ffffffffffffffffffffffffffffffffffffffff168173ffffffffffffffffffffffffffffffffffffffff167f8be0079c531659141344cd1fd0a4f28419497f9722a3daafe3b4186f6b6457e060405160405180910390a35050565b5f805f805f8686810190610aae9190611398565b94509450945094509450600360ff168460ff161115610af9576040517f88dd20d400000000000000000000000000000000000000000000000000000000815260040160405180910390fd5b5f6040518060e001604052808781526020018660ff1681526020018581526020018461ffff1681526020018361ffff1681526020014265ffffffffffff1681526020015f151581525090508060025f8881526020019081526020015f205f820151815f01556020820151816001015f6101000a81548160ff021916908360ff160217905550604082015181600201556060820151816003015f6101000a81548161ffff021916908361ffff16021790555060808201518160030160026101000a81548161ffff021916908361ffff16021790555060a08201518160030160046101000a81548165ffffffffffff021916908365ffffffffffff16021790555060c082015181600301600a6101000a81548160ff021916908315150217905550905050600381908060018154018082558091505060019003905f5260205f2090600402015f909190919091505f820151815f01556020820151816001015f6101000a81548160ff021916908360ff160217905550604082015181600201556060820151816003015f6101000a81548161ffff021916908361ffff16021790555060808201518160030160026101000a81548161ffff021916908361ffff16021790555060a08201518160030160046101000a81548165ffffffffffff021916908365ffffffffffff16021790555060c082015181600301600a6101000a81548160ff0219169083151502179055505050857f8db207486ab9302b288966ce9b16bec47bbde07ea69fc7fbb0388c52fb7da2538686868642604051610d4095949392919061140f565b60405180910390a25050505050505050565b5f33905090565b6040518060e001604052805f80191681526020015f60ff1681526020015f81526020015f61ffff1681526020015f61ffff1681526020015f65ffffffffffff1681526020015f151581525090565b5f80fd5b5f80fd5b5f7fffffffff0000000000000000000000000000000000000000000000000000000082169050919050565b610de381610daf565b8114610ded575f80fd5b50565b5f81359050610dfe81610dda565b92915050565b5f60208284031215610e1957610e18610da7565b5b5f610e2684828501610df0565b91505092915050565b5f8115159050919050565b610e4381610e2f565b82525050565b5f602082019050610e5c5f830184610e3a565b92915050565b5f60ff82169050919050565b610e7781610e62565b82525050565b5f602082019050610e905f830184610e6e565b92915050565b5f73ffffffffffffffffffffffffffffffffffffffff82169050919050565b5f610ebf82610e96565b9050919050565b610ecf81610eb5565b82525050565b5f602082019050610ee85f830184610ec6565b92915050565b5f819050919050565b610f0081610eee565b8114610f0a575f80fd5b50565b5f81359050610f1b81610ef7565b92915050565b5f60208284031215610f3657610f35610da7565b5b5f610f4384828501610f0d565b91505092915050565b5f80fd5b5f80fd5b5f80fd5b5f8083601f840112610f6d57610f6c610f4c565b5b8235905067ffffffffffffffff811115610f8a57610f89610f50565b5b602083019150836001820283011115610fa657610fa5610f54565b5b9250929050565b5f805f8060408587031215610fc557610fc4610da7565b5b5f85013567ffffffffffffffff811115610fe257610fe1610dab565b5b610fee87828801610f58565b9450945050602085013567ffffffffffffffff81111561101157611010610dab565b5b61101d87828801610f58565b925092505092959194509250565b61103481610eee565b82525050565b61104381610e62565b82525050565b5f819050919050565b61105b81611049565b82525050565b5f61ffff82169050919050565b61107781611061565b82525050565b5f65ffffffffffff82169050919050565b6110978161107d565b82525050565b6110a681610e2f565b82525050565b60e082015f8201516110c05f85018261102b565b5060208201516110d3602085018261103a565b5060408201516110e66040850182611052565b5060608201516110f9606085018261106e565b50608082015161110c608085018261106e565b5060a082015161111f60a085018261108e565b5060c082015161113260c085018261109d565b50505050565b5f60e08201905061114b5f8301846110ac565b92915050565b61115a81611049565b82525050565b5f6020820190506111735f830184611151565b92915050565b61118281611049565b811461118c575f80fd5b50565b5f8135905061119d81611179565b92915050565b5f602082840312156111b8576111b7610da7565b5b5f6111c58482850161118f565b91505092915050565b6111d781610eee565b82525050565b6111e681611061565b82525050565b6111f58161107d565b82525050565b5f60e08201905061120e5f83018a6111ce565b61121b6020830189610e6e565b6112286040830188611151565b61123560608301876111dd565b61124260808301866111dd565b61124f60a08301856111ec565b61125c60c0830184610e3a565b98975050505050505050565b61127181610eb5565b811461127b575f80fd5b50565b5f8135905061128c81611268565b92915050565b5f602082840312156112a7576112a6610da7565b5b5f6112b48482850161127e565b91505092915050565b7f4e487b71000000000000000000000000000000000000000000000000000000005f52601160045260245ffd5b5f6112f482611049565b91506112ff83611049565b9250828203905081811115611317576113166112bd565b5b92915050565b5f6040820190506113305f830185610ec6565b61133d6020830184610ec6565b9392505050565b61134d81610e62565b8114611357575f80fd5b50565b5f8135905061136881611344565b92915050565b61137781611061565b8114611381575f80fd5b50565b5f813590506113928161136e565b92915050565b5f805f805f60a086880312156113b1576113b0610da7565b5b5f6113be88828901610f0d565b95505060206113cf8882890161135a565b94505060406113e08882890161118f565b93505060606113f188828901611384565b925050608061140288828901611384565b9150509295509295909350565b5f60a0820190506114225f830188610e6e565b61142f6020830187611151565b61143c60408301866111dd565b61144960608301856111dd565b61145660808301846111ec565b969550505050505056fea2646970667358221220eed8a0abf1eb228393545466268ebd5cf36f56de23232a5a69df360456e1410e64736f6c63430008180033","linkReferences":{}},"methodIdentifiers":{"ACTION_BORROW()":"fccd7411","ACTION_CLOSE()":"5e05b31c","ACTION_PAUSE()":"8762da8b","ACTION_REPAY()":"12d6e606","commandHistory(uint256)":"aaac726a","getCommandCount()":"9a2d834f","getForwarderAddress()":"3441856f","getPendingCommand(bytes32)":"85cfcd2c","markExecuted(bytes32)":"665d4c61","onReport(bytes,bytes)":"805f2132","owner()":"8da5cb5b","pendingCommands(bytes32)":"ed1c2781","renounceOwnership()":"715018a6","setForwarderAddress(address)":"d777cc6d","supportsInterface(bytes4)":"01ffc9a7","transferOwnership(address)":"f2fde38b"},"id":21}