{"abi":[{"type":"constructor","inputs":[{"name":"_forwarderAddress","type":"address","internalType":"address"}],"stateMutability":"nonpayable"},{"type":"function","name":"RISK_CRITICAL","inputs":[],"outputs":[{"name":"","type":"uint8","internalType":"uint8"}],"stateMutability":"view"},{"type":"function","name":"RISK_DANGER","inputs":[],"outputs":[{"name":"","type":"uint8","internalType":"uint8"}],"stateMutability":"view"},{"type":"function","name":"RISK_SAFE","inputs":[],"outputs":[{"name":"","type":"uint8","internalType":"uint8"}],"stateMutability":"view"},{"type":"function","name":"RISK_WARNING","inputs":[],"outputs":[{"name":"","type":"uint8","internalType":"uint8"}],"stateMutability":"view"},{"type":"function","name":"assessmentHistory","inputs":[{"name":"","type":"uint256","internalType":"uint256"}],"outputs":[{"name":"agentId","type":"bytes32","internalType":"bytes32"},{"name":"riskLevel","type":"uint8","internalType":"uint8"},{"name":"currentLtvBps","type":"uint16","internalType":"uint16"},{"name":"targetLtvBps","type":"uint16","internalType":"uint16"},{"name":"maxLtvBps","type":"uint16","internalType":"uint16"},{"name":"yieldSpreadBps","type":"int16","internalType":"int16"},{"name":"timestamp","type":"uint48","internalType":"uint48"},{"name":"confidence","type":"uint16","internalType":"uint16"},{"name":"actionHash","type":"bytes32","internalType":"bytes32"}],"stateMutability":"view"},{"type":"function","name":"assessments","inputs":[{"name":"","type":"bytes32","internalType":"bytes32"}],"outputs":[{"name":"agentId","type":"bytes32","internalType":"bytes32"},{"name":"riskLevel","type":"uint8","internalType":"uint8"},{"name":"currentLtvBps","type":"uint16","internalType":"uint16"},{"name":"targetLtvBps","type":"uint16","internalType":"uint16"},{"name":"maxLtvBps","type":"uint16","internalType":"uint16"},{"name":"yieldSpreadBps","type":"int16","internalType":"int16"},{"name":"timestamp","type":"uint48","internalType":"uint48"},{"name":"confidence","type":"uint16","internalType":"uint16"},{"name":"actionHash","type":"bytes32","internalType":"bytes32"}],"stateMutability":"view"},{"type":"function","name":"getAssessment","inputs":[{"name":"agentId","type":"bytes32","internalType":"bytes32"}],"outputs":[{"name":"","type":"tuple","internalType":"struct BorrowBotRiskOracle.RiskAssessment","components":[{"name":"agentId","type":"bytes32","internalType":"bytes32"},{"name":"riskLevel","type":"uint8","internalType":"uint8"},{"name":"currentLtvBps","type":"uint16","internalType":"uint16"},{"name":"targetLtvBps","type":"uint16","internalType":"uint16"},{"name":"maxLtvBps","type":"uint16","internalType":"uint16"},{"name":"yieldSpreadBps","type":"int16","internalType":"int16"},{"name":"timestamp","type":"uint48","internalType":"uint48"},{"name":"confidence","type":"uint16","internalType":"uint16"},{"name":"actionHash","type":"bytes32","internalType":"bytes32"}]}],"stateMutability":"view"},{"type":"function","name":"getAssessmentCount","inputs":[],"outputs":[{"name":"","type":"uint256","internalType":"uint256"}],"stateMutability":"view"},{"type":"function","name":"getForwarderAddress","inputs":[],"outputs":[{"name":"","type":"address","internalType":"address"}],"stateMutability":"view"},{"type":"function","name":"getLatestAssessments","inputs":[{"name":"count","type":"uint256","internalType":"uint256"}],"outputs":[{"name":"","type":"tuple[]","internalType":"struct BorrowBotRiskOracle.RiskAssessment[]","components":[{"name":"agentId","type":"bytes32","internalType":"bytes32"},{"name":"riskLevel","type":"uint8","internalType":"uint8"},{"name":"currentLtvBps","type":"uint16","internalType":"uint16"},{"name":"targetLtvBps","type":"uint16","internalType":"uint16"},{"name":"maxLtvBps","type":"uint16","internalType":"uint16"},{"name":"yieldSpreadBps","type":"int16","internalType":"int16"},{"name":"timestamp","type":"uint48","internalType":"uint48"},{"name":"confidence","type":"uint16","internalType":"uint16"},{"name":"actionHash","type":"bytes32","internalType":"bytes32"}]}],"stateMutability":"view"},{"type":"function","name":"onReport","inputs":[{"name":"metadata","type":"bytes","internalType":"bytes"},{"name":"report","type":"bytes","internalType":"bytes"}],"outputs":[],"stateMutability":"nonpayable"},{"type":"function","name":"owner","inputs":[],"outputs":[{"name":"","type":"address","internalType":"address"}],"stateMutability":"view"},{"type":"function","name":"renounceOwnership","inputs":[],"outputs":[],"stateMutability":"nonpayable"},{"type":"function","name":"setForwarderAddress","inputs":[{"name":"_forwarder","type":"address","internalType":"address"}],"outputs":[],"stateMutability":"nonpayable"},{"type":"function","name":"supportsInterface","inputs":[{"name":"interfaceId","type":"bytes4","internalType":"bytes4"}],"outputs":[{"name":"","type":"bool","internalType":"bool"}],"stateMutability":"view"},{"type":"function","name":"transferOwnership","inputs":[{"name":"newOwner","type":"address","internalType":"address"}],"outputs":[],"stateMutability":"nonpayable"},{"type":"event","name":"CriticalRisk","inputs":[{"name":"agentId","type":"bytes32","indexed":true,"internalType":"bytes32"},{"name":"currentLtvBps","type":"uint16","indexed":false,"internalType":"uint16"},{"name":"maxLtvBps","type":"uint16","indexed":false,"internalType":"uint16"}],"anonymous":false},{"type":"event","name":"ForwarderAddressUpdated","inputs":[{"name":"previousForwarder","type":"address","indexed":true,"internalType":"address"},{"name":"newForwarder","type":"address","indexed":true,"internalType":"address"}],"anonymous":false},{"type":"event","name":"OwnershipTransferred","inputs":[{"name":"previousOwner","type":"address","indexed":true,"internalType":"address"},{"name":"newOwner","type":"address","indexed":true,"internalType":"address"}],"anonymous":false},{"type":"event","name":"RiskAssessed","inputs":[{"name":"agentId","type":"bytes32","indexed":true,"internalType":"bytes32"},{"name":"riskLevel","type":"uint8","indexed":false,"internalType":"uint8"},{"name":"currentLtvBps","type":"uint16","indexed":false,"internalType":"uint16"},{"name":"confidence","type":"uint16","indexed":false,"internalType":"uint16"},{"name":"timestamp","type":"uint48","indexed":false,"internalType":"uint48"}],"anonymous":false},{"type":"error","name":"InvalidForwarderAddress","inputs":[]},{"type":"error","name":"InvalidRiskLevel","inputs":[]},{"type":"error","name":"InvalidSender","inputs":[{"name":"sender","type":"address","internalType":"address"},{"name":"expected","type":"address","internalType":"address"}]},{"type":"error","name":"OwnableInvalidOwner","inputs":[{"name":"owner","type":"address","internalType":"address"}]},{"type":"error","name":"OwnableUnauthorizedAccount","inputs":[{"name":"account","type":"address","internalType":"address"}]}],"bytecode":{"object":"0x608060405234801562000010575f80fd5b5060405162001dfa38038062001dfa8339818101604052810190620000369190620002eb565b80335f73ffffffffffffffffffffffffffffffffffffffff168173ffffffffffffffffffffffffffffffffffffffff1603620000ab575f6040517f1e4fbdf7000000000000000000000000000000000000000000000000000000008152600401620000a291906200032c565b60405180910390fd5b620000bc81620001c560201b60201c565b505f73ffffffffffffffffffffffffffffffffffffffff168173ffffffffffffffffffffffffffffffffffffffff160362000123576040517f381dd54000000000000000000000000000000000000000000000000000000000815260040160405180910390fd5b8060015f6101000a81548173ffffffffffffffffffffffffffffffffffffffff021916908373ffffffffffffffffffffffffffffffffffffffff1602179055508073ffffffffffffffffffffffffffffffffffffffff165f73ffffffffffffffffffffffffffffffffffffffff167f039ad854736757070884dd787ef1a7f58db33546639d1f3efddcf4a33fb8997e60405160405180910390a3505062000347565b5f805f9054906101000a900473ffffffffffffffffffffffffffffffffffffffff169050815f806101000a81548173ffffffffffffffffffffffffffffffffffffffff021916908373ffffffffffffffffffffffffffffffffffffffff1602179055508173ffffffffffffffffffffffffffffffffffffffff168173ffffffffffffffffffffffffffffffffffffffff167f8be0079c531659141344cd1fd0a4f28419497f9722a3daafe3b4186f6b6457e060405160405180910390a35050565b5f80fd5b5f73ffffffffffffffffffffffffffffffffffffffff82169050919050565b5f620002b5826200028a565b9050919050565b620002c781620002a9565b8114620002d2575f80fd5b50565b5f81519050620002e581620002bc565b92915050565b5f6020828403121562000303576200030262000286565b5b5f6200031284828501620002d5565b91505092915050565b6200032681620002a9565b82525050565b5f602082019050620003415f8301846200031b565b92915050565b611aa580620003555f395ff3fe608060405234801561000f575f80fd5b50600436106100fe575f3560e01c80638da5cb5b11610095578063be23e86611610064578063be23e866146102be578063d777cc6d146102dc578063dd3bf917146102f8578063f2fde38b14610316576100fe565b80638da5cb5b1461022c57806397f715511461024a57806398dda73214610268578063ab15a20014610286576100fe565b8063715018a6116100d1578063715018a6146101a65780637ae99a59146101b0578063805f2132146101e05780638255343c146101fc576100fe565b806301ffc9a7146101025780633441856f1461013257806341cb3926146101505780634e27015214610188575b5f80fd5b61011c60048036038101906101179190611137565b610332565b604051610129919061117c565b60405180910390f35b61013a610403565b60405161014791906111d4565b60405180910390f35b61016a60048036038101906101659190611220565b61042b565b60405161017f999897969594939291906112d5565b60405180910390f35b6101906104e7565b60405161019d9190611360565b60405180910390f35b6101ae6104eb565b005b6101ca60048036038101906101c59190611220565b6104fe565b6040516101d79190611522565b60405180910390f35b6101fa60048036038101906101f591906115a3565b6106e6565b005b6102166004803603810190610211919061164b565b610805565b604051610223919061172b565b60405180910390f35b610234610929565b60405161024191906111d4565b60405180910390f35b610252610950565b60405161025f9190611360565b60405180910390f35b610270610955565b60405161027d9190611754565b60405180910390f35b6102a0600480360381019061029b919061164b565b610961565b6040516102b5999897969594939291906112d5565b60405180910390f35b6102c6610a0e565b6040516102d39190611360565b60405180910390f35b6102f660048036038101906102f19190611797565b610a13565b005b610300610ade565b60405161030d9190611360565b60405180910390f35b610330600480360381019061032b9190611797565b610ae3565b005b5f7f805f2132000000000000000000000000000000000000000000000000000000007bffffffffffffffffffffffffffffffffffffffffffffffffffffffff1916827bffffffffffffffffffffffffffffffffffffffffffffffffffffffff191614806103fc57507f01ffc9a7000000000000000000000000000000000000000000000000000000007bffffffffffffffffffffffffffffffffffffffffffffffffffffffff1916827bffffffffffffffffffffffffffffffffffffffffffffffffffffffff1916145b9050919050565b5f60015f9054906101000a900473ffffffffffffffffffffffffffffffffffffffff16905090565b6003818154811061043a575f80fd5b905f5260205f2090600302015f91509050805f015490806001015f9054906101000a900460ff16908060010160019054906101000a900461ffff16908060010160039054906101000a900461ffff16908060010160059054906101000a900461ffff16908060010160079054906101000a900460010b908060010160099054906101000a900465ffffffffffff169080600101600f9054906101000a900461ffff16908060020154905089565b5f81565b6104f3610b67565b6104fc5f610bee565b565b60605f600380549050905080831115610515578092505b5f8367ffffffffffffffff8111156105305761052f6117c2565b5b60405190808252806020026020018201604052801561056957816020015b610556611073565b81526020019060019003908161054e5790505b5090505f5b848110156106db576003818685610585919061181c565b61058f919061184f565b815481106105a05761059f611882565b5b905f5260205f209060030201604051806101200160405290815f8201548152602001600182015f9054906101000a900460ff1660ff1660ff1681526020016001820160019054906101000a900461ffff1661ffff1661ffff1681526020016001820160039054906101000a900461ffff1661ffff1661ffff1681526020016001820160059054906101000a900461ffff1661ffff1661ffff1681526020016001820160079054906101000a900460010b60010b60010b81526020016001820160099054906101000a900465ffffffffffff1665ffffffffffff1665ffffffffffff16815260200160018201600f9054906101000a900461ffff1661ffff1661ffff1681526020016002820154815250508282815181106106c3576106c2611882565b5b6020026020010181905250808060010191505061056e565b508092505050919050565b5f73ffffffffffffffffffffffffffffffffffffffff1660015f9054906101000a900473ffffffffffffffffffffffffffffffffffffffff1673ffffffffffffffffffffffffffffffffffffffff1614158015610790575060015f9054906101000a900473ffffffffffffffffffffffffffffffffffffffff1673ffffffffffffffffffffffffffffffffffffffff163373ffffffffffffffffffffffffffffffffffffffff1614155b156107f5573360015f9054906101000a900473ffffffffffffffffffffffffffffffffffffffff166040517fe1130dba0000000000000000000000000000000000000000000000000000000081526004016107ec9291906118af565b60405180910390fd5b6107ff8282610caf565b50505050565b61080d611073565b60025f8381526020019081526020015f20604051806101200160405290815f8201548152602001600182015f9054906101000a900460ff1660ff1660ff1681526020016001820160019054906101000a900461ffff1661ffff1661ffff1681526020016001820160039054906101000a900461ffff1661ffff1661ffff1681526020016001820160059054906101000a900461ffff1661ffff1661ffff1681526020016001820160079054906101000a900460010b60010b60010b81526020016001820160099054906101000a900465ffffffffffff1665ffffffffffff1665ffffffffffff16815260200160018201600f9054906101000a900461ffff1661ffff1661ffff1681526020016002820154815250509050919050565b5f805f9054906101000a900473ffffffffffffffffffffffffffffffffffffffff16905090565b600281565b5f600380549050905090565b6002602052805f5260405f205f91509050805f015490806001015f9054906101000a900460ff16908060010160019054906101000a900461ffff16908060010160039054906101000a900461ffff16908060010160059054906101000a900461ffff16908060010160079054906101000a900460010b908060010160099054906101000a900465ffffffffffff169080600101600f9054906101000a900461ffff16908060020154905089565b600381565b610a1b610b67565b5f60015f9054906101000a900473ffffffffffffffffffffffffffffffffffffffff1690508160015f6101000a81548173ffffffffffffffffffffffffffffffffffffffff021916908373ffffffffffffffffffffffffffffffffffffffff1602179055508173ffffffffffffffffffffffffffffffffffffffff168173ffffffffffffffffffffffffffffffffffffffff167f039ad854736757070884dd787ef1a7f58db33546639d1f3efddcf4a33fb8997e60405160405180910390a35050565b600181565b610aeb610b67565b5f73ffffffffffffffffffffffffffffffffffffffff168173ffffffffffffffffffffffffffffffffffffffff1603610b5b575f6040517f1e4fbdf7000000000000000000000000000000000000000000000000000000008152600401610b5291906111d4565b60405180910390fd5b610b6481610bee565b50565b610b6f61106c565b73ffffffffffffffffffffffffffffffffffffffff16610b8d610929565b73ffffffffffffffffffffffffffffffffffffffff1614610bec57610bb061106c565b6040517f118cdaa7000000000000000000000000000000000000000000000000000000008152600401610be391906111d4565b60405180910390fd5b565b5f805f9054906101000a900473ffffffffffffffffffffffffffffffffffffffff169050815f806101000a81548173ffffffffffffffffffffffffffffffffffffffff021916908373ffffffffffffffffffffffffffffffffffffffff1602179055508173ffffffffffffffffffffffffffffffffffffffff168173ffffffffffffffffffffffffffffffffffffffff167f8be0079c531659141344cd1fd0a4f28419497f9722a3daafe3b4186f6b6457e060405160405180910390a35050565b5f805f805f805f808989810190610cc69190611954565b97509750975097509750975097509750600360ff168760ff161115610d17576040517f43c09dae00000000000000000000000000000000000000000000000000000000815260040160405180910390fd5b5f6040518061012001604052808a81526020018960ff1681526020018861ffff1681526020018761ffff1681526020018661ffff1681526020018560010b81526020014265ffffffffffff1681526020018461ffff1681526020018381525090508060025f8b81526020019081526020015f205f820151815f01556020820151816001015f6101000a81548160ff021916908360ff16021790555060408201518160010160016101000a81548161ffff021916908361ffff16021790555060608201518160010160036101000a81548161ffff021916908361ffff16021790555060808201518160010160056101000a81548161ffff021916908361ffff16021790555060a08201518160010160076101000a81548161ffff021916908360010b61ffff16021790555060c08201518160010160096101000a81548165ffffffffffff021916908365ffffffffffff16021790555060e082015181600101600f6101000a81548161ffff021916908361ffff1602179055506101008201518160020155905050600381908060018154018082558091505060019003905f5260205f2090600302015f909190919091505f820151815f01556020820151816001015f6101000a81548160ff021916908360ff16021790555060408201518160010160016101000a81548161ffff021916908361ffff16021790555060608201518160010160036101000a81548161ffff021916908361ffff16021790555060808201518160010160056101000a81548161ffff021916908361ffff16021790555060a08201518160010160076101000a81548161ffff021916908360010b61ffff16021790555060c08201518160010160096101000a81548165ffffffffffff021916908365ffffffffffff16021790555060e082015181600101600f6101000a81548161ffff021916908361ffff16021790555061010082015181600201555050887ff1349f76b10b5c9af805bb298467d3b20d9658d71756a43f3e9617a5388693848989864260405161100e9493929190611a05565b60405180910390a2600360ff168860ff160361105f57887f76fe7454970f0f1f996f270ce502b367fa97bed27831608072e2eb171e1bee358887604051611056929190611a48565b60405180910390a25b5050505050505050505050565b5f33905090565b6040518061012001604052805f80191681526020015f60ff1681526020015f61ffff1681526020015f61ffff1681526020015f61ffff1681526020015f60010b81526020015f65ffffffffffff1681526020015f61ffff1681526020015f80191681525090565b5f80fd5b5f80fd5b5f7fffffffff0000000000000000000000000000000000000000000000000000000082169050919050565b611116816110e2565b8114611120575f80fd5b50565b5f813590506111318161110d565b92915050565b5f6020828403121561114c5761114b6110da565b5b5f61115984828501611123565b91505092915050565b5f8115159050919050565b61117681611162565b82525050565b5f60208201905061118f5f83018461116d565b92915050565b5f73ffffffffffffffffffffffffffffffffffffffff82169050919050565b5f6111be82611195565b9050919050565b6111ce816111b4565b82525050565b5f6020820190506111e75f8301846111c5565b92915050565b5f819050919050565b6111ff816111ed565b8114611209575f80fd5b50565b5f8135905061121a816111f6565b92915050565b5f60208284031215611235576112346110da565b5b5f6112428482850161120c565b91505092915050565b5f819050919050565b61125d8161124b565b82525050565b5f60ff82169050919050565b61127881611263565b82525050565b5f61ffff82169050919050565b6112948161127e565b82525050565b5f8160010b9050919050565b6112af8161129a565b82525050565b5f65ffffffffffff82169050919050565b6112cf816112b5565b82525050565b5f610120820190506112e95f83018c611254565b6112f6602083018b61126f565b611303604083018a61128b565b611310606083018961128b565b61131d608083018861128b565b61132a60a08301876112a6565b61133760c08301866112c6565b61134460e083018561128b565b611352610100830184611254565b9a9950505050505050505050565b5f6020820190506113735f83018461126f565b92915050565b5f81519050919050565b5f82825260208201905092915050565b5f819050602082019050919050565b6113ab8161124b565b82525050565b6113ba81611263565b82525050565b6113c98161127e565b82525050565b6113d88161129a565b82525050565b6113e7816112b5565b82525050565b61012082015f8201516114025f8501826113a2565b50602082015161141560208501826113b1565b50604082015161142860408501826113c0565b50606082015161143b60608501826113c0565b50608082015161144e60808501826113c0565b5060a082015161146160a08501826113cf565b5060c082015161147460c08501826113de565b5060e082015161148760e08501826113c0565b5061010082015161149c6101008501826113a2565b50505050565b5f6114ad83836113ed565b6101208301905092915050565b5f602082019050919050565b5f6114d082611379565b6114da8185611383565b93506114e583611393565b805f5b838110156115155781516114fc88826114a2565b9750611507836114ba565b9250506001810190506114e8565b5085935050505092915050565b5f6020820190508181035f83015261153a81846114c6565b905092915050565b5f80fd5b5f80fd5b5f80fd5b5f8083601f84011261156357611562611542565b5b8235905067ffffffffffffffff8111156115805761157f611546565b5b60208301915083600182028301111561159c5761159b61154a565b5b9250929050565b5f805f80604085870312156115bb576115ba6110da565b5b5f85013567ffffffffffffffff8111156115d8576115d76110de565b5b6115e48782880161154e565b9450945050602085013567ffffffffffffffff811115611607576116066110de565b5b6116138782880161154e565b925092505092959194509250565b61162a8161124b565b8114611634575f80fd5b50565b5f8135905061164581611621565b92915050565b5f602082840312156116605761165f6110da565b5b5f61166d84828501611637565b91505092915050565b61012082015f82015161168b5f8501826113a2565b50602082015161169e60208501826113b1565b5060408201516116b160408501826113c0565b5060608201516116c460608501826113c0565b5060808201516116d760808501826113c0565b5060a08201516116ea60a08501826113cf565b5060c08201516116fd60c08501826113de565b5060e082015161171060e08501826113c0565b506101008201516117256101008501826113a2565b50505050565b5f6101208201905061173f5f830184611676565b92915050565b61174e816111ed565b82525050565b5f6020820190506117675f830184611745565b92915050565b611776816111b4565b8114611780575f80fd5b50565b5f813590506117918161176d565b92915050565b5f602082840312156117ac576117ab6110da565b5b5f6117b984828501611783565b91505092915050565b7f4e487b71000000000000000000000000000000000000000000000000000000005f52604160045260245ffd5b7f4e487b71000000000000000000000000000000000000000000000000000000005f52601160045260245ffd5b5f611826826111ed565b9150611831836111ed565b9250828203905081811115611849576118486117ef565b5b92915050565b5f611859826111ed565b9150611864836111ed565b925082820190508082111561187c5761187b6117ef565b5b92915050565b7f4e487b71000000000000000000000000000000000000000000000000000000005f52603260045260245ffd5b5f6040820190506118c25f8301856111c5565b6118cf60208301846111c5565b9392505050565b6118df81611263565b81146118e9575f80fd5b50565b5f813590506118fa816118d6565b92915050565b6119098161127e565b8114611913575f80fd5b50565b5f8135905061192481611900565b92915050565b6119338161129a565b811461193d575f80fd5b50565b5f8135905061194e8161192a565b92915050565b5f805f805f805f80610100898b031215611971576119706110da565b5b5f61197e8b828c01611637565b985050602061198f8b828c016118ec565b97505060406119a08b828c01611916565b96505060606119b18b828c01611916565b95505060806119c28b828c01611916565b94505060a06119d38b828c01611940565b93505060c06119e48b828c01611916565b92505060e06119f58b828c01611637565b9150509295985092959890939650565b5f608082019050611a185f83018761126f565b611a25602083018661128b565b611a32604083018561128b565b611a3f60608301846112c6565b95945050505050565b5f604082019050611a5b5f83018561128b565b611a68602083018461128b565b939250505056fea26469706673582212200c211f280bf639a0c9944c16cf83a23282484ddbbc74a92808c363eb9ce185d364736f6c63430008180033","linkReferences":{}},"methodIdentifiers":{"RISK_CRITICAL()":"be23e866","RISK_DANGER()":"97f71551","RISK_SAFE()":"4e270152","RISK_WARNING()":"dd3bf917","assessmentHistory(uint256)":"41cb3926","assessments(bytes32)":"ab15a200","getAssessment(bytes32)":"8255343c","getAssessmentCount()":"98dda732","getForwarderAddress()":"3441856f","getLatestAssessments(uint256)":"7ae99a59","onReport(bytes,bytes)":"805f2132","owner()":"8da5cb5b","renounceOwnership()":"715018a6","setForwarderAddress(address)":"d777cc6d","supportsInterface(bytes4)":"01ffc9a7","transferOwnership(address)":"f2fde38b"},"id":22}